{
  "contracts/Groth16Verifier.sol": {
    "Groth16Verifier": {
      "abi": [
        {
          "inputs": [
            {
              "internalType": "uint256[2]",
              "name": "_pA",
              "type": "uint256[2]"
            },
            {
              "internalType": "uint256[2][2]",
              "name": "_pB",
              "type": "uint256[2][2]"
            },
            {
              "internalType": "uint256[2]",
              "name": "_pC",
              "type": "uint256[2]"
            },
            {
              "internalType": "uint256[2]",
              "name": "_pubSignals",
              "type": "uint256[2]"
            }
          ],
          "name": "verifyProof",
          "outputs": [
            {
              "internalType": "bool",
              "name": "",
              "type": "bool"
            }
          ],
          "stateMutability": "view",
          "type": "function"
        }
      ],
      "evm": {
        "bytecode": {
          "linkReferences": {},
          "object": "6080604052348015600f57600080fd5b5061063b8061001f6000396000f3fe608060405234801561001057600080fd5b506004361061002b5760003560e01c8063f5c9d69e14610030575b600080fd5b61004a60048036038101906100459190610566565b610060565b60405161005791906105ea565b60405180910390f35b60006104dc565b7f30644e72e131a029b85045b68181585d2833e84879b9709143e1f593f00000018110610098576000805260206000f35b50565b600060405183815284602082015285604082015260408160608360076107d05a03fa9150816100ce576000805260206000f35b825160408201526020830151606082015260408360808360066107d05a03fa9150816100fe576000805260206000f35b505050505050565b600060808601600087017f16b76df79985f69cd279c87b3b0c0a25ca34446e098bc1e931e019107a1419a281527f01e0997fbd59485d91f0b54a88c4ab1388655e5060c2a2f95ec03b54834bd46e60208201526101a960008801357f145112b77ee1edcca8c92e9ffc316b3d9e8256d0812efa3bcd742d0b319af1917f29520e67168d7985684e461a7dafd1c5019798ac218a8fc74c1aec4c8df3ed328461009b565b6101f860208801357e632145346327e15d8a95a1657a0f4cd211c984d21eb1a8528783c78faa6ba77f28027272f1cc2b0aaff23182c07934a8488064b582611f69489b9d4aef41e5a58461009b565b833582527f30644e72e131a029b85045b68181585d97816a916871ca8d3c208c16d87cfd4760208501357f30644e72e131a029b85045b68181585d97816a916871ca8d3c208c16d87cfd4703066020830152843560408301526020850135606083015260408501356080830152606085013560a08301527f2d4d9aa7e302d9df41749d5507949d05dbea33fbb16c643b22f599a2be6df2e260c08301527f14bedd503c37ceb061d8ec60209fe345ce89830a19230301f076caff004d192660e08301527f0967032fcbf776d1afc985f88877f182d38480a653f2decaa9794cbc3bf3060c6101008301527f0e187847ad4c798374d0d6732bf501847dd68bc0e071241e0213bc7fc13db7ab6101208301527f304cfbd1e08a704a99f5e847d93f8c3caafddec46b7a0d379da69a4d112346a76101408301527f1739c1b1a457a8c7313123d24d2f9192f896b7c63eea05a9d57f06547ad0cec8610160830152600088015161018083015260206000018801516101a08301527f198e9393920d483a7260bfb731fb5d25f1aa493335a9e71297e485b7aef312c26101c08301527f1800deef121f1e76426a00665e5c4479674322d4f75edadd46debd5cd992f6ed6101e08301527f090689d0585ff075ec9e99ad690c3395bc4b313370b38ef355acdadcd122975b6102008301527f12c85ea5db8c6deb4aab71808dcb408fe3d1e7690c43d37b4ce6cc0166fa7daa610220830152853561024083015260208601356102608301527f2d2bbb2f1b7fd5920b5ae8c7b782441f9f5eae515fcdda7c5233ba68eb2748fe6102808301527f040d1a5966cd551726c873488d36cc99513bf68e9baf1a857449b597bd9907f26102a08301527f2835ce2e96c4f8d88bff691e87203d0e067f4f0f2830c7801550b0ff385a47dc6102c08301527f2542316382241909581fe83803540d415044c07673a107a1cfd5eee7b120bbf56102e08301526020826103008460086107d05a03fa82518116935050505095945050505050565b60405161038081016040526104f46000840135610067565b6105016020840135610067565b61050e818486888a610106565b8060005260206000f35b600080fd5b600080fd5b60008190508260206002028201111561053e5761053d61051d565b5b92915050565b6000819050826040600202820111156105605761055f61051d565b5b92915050565b600080600080610140858703121561058157610580610518565b5b600061058f87828801610522565b94505060406105a087828801610544565b93505060c06105b187828801610522565b9250506101006105c387828801610522565b91505092959194509250565b60008115159050919050565b6105e4816105cf565b82525050565b60006020820190506105ff60008301846105db565b9291505056fea26469706673582212208ff76985c44a13dc9e371aaae359eaac704764562aa9939b3baa5a5bce4c005664736f6c634300081c0033",
          "opcodes": "PUSH1 0x80 PUSH1 0x40 MSTORE CALLVALUE DUP1 ISZERO PUSH1 0xF JUMPI PUSH1 0x0 DUP1 REVERT JUMPDEST POP PUSH2 0x63B DUP1 PUSH2 0x1F PUSH1 0x0 CODECOPY PUSH1 0x0 RETURN INVALID PUSH1 0x80 PUSH1 0x40 MSTORE CALLVALUE DUP1 ISZERO PUSH2 0x10 JUMPI PUSH1 0x0 DUP1 REVERT JUMPDEST POP PUSH1 0x4 CALLDATASIZE LT PUSH2 0x2B JUMPI PUSH1 0x0 CALLDATALOAD PUSH1 0xE0 SHR DUP1 PUSH4 0xF5C9D69E EQ PUSH2 0x30 JUMPI JUMPDEST PUSH1 0x0 DUP1 REVERT JUMPDEST PUSH2 0x4A PUSH1 0x4 DUP1 CALLDATASIZE SUB DUP2 ADD SWAP1 PUSH2 0x45 SWAP2 SWAP1 PUSH2 0x566 JUMP JUMPDEST PUSH2 0x60 JUMP JUMPDEST PUSH1 0x40 MLOAD PUSH2 0x57 SWAP2 SWAP1 PUSH2 0x5EA JUMP JUMPDEST PUSH1 0x40 MLOAD DUP1 SWAP2 SUB SWAP1 RETURN JUMPDEST PUSH1 0x0 PUSH2 0x4DC JUMP JUMPDEST PUSH32 0x30644E72E131A029B85045B68181585D2833E84879B9709143E1F593F0000001 DUP2 LT PUSH2 0x98 JUMPI PUSH1 0x0 DUP1 MSTORE PUSH1 0x20 PUSH1 0x0 RETURN JUMPDEST POP JUMP JUMPDEST PUSH1 0x0 PUSH1 0x40 MLOAD DUP4 DUP2 MSTORE DUP5 PUSH1 0x20 DUP3 ADD MSTORE DUP6 PUSH1 0x40 DUP3 ADD MSTORE PUSH1 0x40 DUP2 PUSH1 0x60 DUP4 PUSH1 0x7 PUSH2 0x7D0 GAS SUB STATICCALL SWAP2 POP DUP2 PUSH2 0xCE JUMPI PUSH1 0x0 DUP1 MSTORE PUSH1 0x20 PUSH1 0x0 RETURN JUMPDEST DUP3 MLOAD PUSH1 0x40 DUP3 ADD MSTORE PUSH1 0x20 DUP4 ADD MLOAD PUSH1 0x60 DUP3 ADD MSTORE PUSH1 0x40 DUP4 PUSH1 0x80 DUP4 PUSH1 0x6 PUSH2 0x7D0 GAS SUB STATICCALL SWAP2 POP DUP2 PUSH2 0xFE JUMPI PUSH1 0x0 DUP1 MSTORE PUSH1 0x20 PUSH1 0x0 RETURN JUMPDEST POP POP POP POP POP POP JUMP JUMPDEST PUSH1 0x0 PUSH1 0x80 DUP7 ADD PUSH1 0x0 DUP8 ADD PUSH32 0x16B76DF79985F69CD279C87B3B0C0A25CA34446E098BC1E931E019107A1419A2 DUP2 MSTORE PUSH32 0x1E0997FBD59485D91F0B54A88C4AB1388655E5060C2A2F95EC03B54834BD46E PUSH1 0x20 DUP3 ADD MSTORE PUSH2 0x1A9 PUSH1 0x0 DUP9 ADD CALLDATALOAD PUSH32 0x145112B77EE1EDCCA8C92E9FFC316B3D9E8256D0812EFA3BCD742D0B319AF191 PUSH32 0x29520E67168D7985684E461A7DAFD1C5019798AC218A8FC74C1AEC4C8DF3ED32 DUP5 PUSH2 0x9B JUMP JUMPDEST PUSH2 0x1F8 PUSH1 0x20 DUP9 ADD CALLDATALOAD PUSH31 0x632145346327E15D8A95A1657A0F4CD211C984D21EB1A8528783C78FAA6BA7 PUSH32 0x28027272F1CC2B0AAFF23182C07934A8488064B582611F69489B9D4AEF41E5A5 DUP5 PUSH2 0x9B JUMP JUMPDEST DUP4 CALLDATALOAD DUP3 MSTORE PUSH32 0x30644E72E131A029B85045B68181585D97816A916871CA8D3C208C16D87CFD47 PUSH1 0x20 DUP6 ADD CALLDATALOAD PUSH32 0x30644E72E131A029B85045B68181585D97816A916871CA8D3C208C16D87CFD47 SUB MOD PUSH1 0x20 DUP4 ADD MSTORE DUP5 CALLDATALOAD PUSH1 0x40 DUP4 ADD MSTORE PUSH1 0x20 DUP6 ADD CALLDATALOAD PUSH1 0x60 DUP4 ADD MSTORE PUSH1 0x40 DUP6 ADD CALLDATALOAD PUSH1 0x80 DUP4 ADD MSTORE PUSH1 0x60 DUP6 ADD CALLDATALOAD PUSH1 0xA0 DUP4 ADD MSTORE PUSH32 0x2D4D9AA7E302D9DF41749D5507949D05DBEA33FBB16C643B22F599A2BE6DF2E2 PUSH1 0xC0 DUP4 ADD MSTORE PUSH32 0x14BEDD503C37CEB061D8EC60209FE345CE89830A19230301F076CAFF004D1926 PUSH1 0xE0 DUP4 ADD MSTORE PUSH32 0x967032FCBF776D1AFC985F88877F182D38480A653F2DECAA9794CBC3BF3060C PUSH2 0x100 DUP4 ADD MSTORE PUSH32 0xE187847AD4C798374D0D6732BF501847DD68BC0E071241E0213BC7FC13DB7AB PUSH2 0x120 DUP4 ADD MSTORE PUSH32 0x304CFBD1E08A704A99F5E847D93F8C3CAAFDDEC46B7A0D379DA69A4D112346A7 PUSH2 0x140 DUP4 ADD MSTORE PUSH32 0x1739C1B1A457A8C7313123D24D2F9192F896B7C63EEA05A9D57F06547AD0CEC8 PUSH2 0x160 DUP4 ADD MSTORE PUSH1 0x0 DUP9 ADD MLOAD PUSH2 0x180 DUP4 ADD MSTORE PUSH1 0x20 PUSH1 0x0 ADD DUP9 ADD MLOAD PUSH2 0x1A0 DUP4 ADD MSTORE PUSH32 0x198E9393920D483A7260BFB731FB5D25F1AA493335A9E71297E485B7AEF312C2 PUSH2 0x1C0 DUP4 ADD MSTORE PUSH32 0x1800DEEF121F1E76426A00665E5C4479674322D4F75EDADD46DEBD5CD992F6ED PUSH2 0x1E0 DUP4 ADD MSTORE PUSH32 0x90689D0585FF075EC9E99AD690C3395BC4B313370B38EF355ACDADCD122975B PUSH2 0x200 DUP4 ADD MSTORE PUSH32 0x12C85EA5DB8C6DEB4AAB71808DCB408FE3D1E7690C43D37B4CE6CC0166FA7DAA PUSH2 0x220 DUP4 ADD MSTORE DUP6 CALLDATALOAD PUSH2 0x240 DUP4 ADD MSTORE PUSH1 0x20 DUP7 ADD CALLDATALOAD PUSH2 0x260 DUP4 ADD MSTORE PUSH32 0x2D2BBB2F1B7FD5920B5AE8C7B782441F9F5EAE515FCDDA7C5233BA68EB2748FE PUSH2 0x280 DUP4 ADD MSTORE PUSH32 0x40D1A5966CD551726C873488D36CC99513BF68E9BAF1A857449B597BD9907F2 PUSH2 0x2A0 DUP4 ADD MSTORE PUSH32 0x2835CE2E96C4F8D88BFF691E87203D0E067F4F0F2830C7801550B0FF385A47DC PUSH2 0x2C0 DUP4 ADD MSTORE PUSH32 0x2542316382241909581FE83803540D415044C07673A107A1CFD5EEE7B120BBF5 PUSH2 0x2E0 DUP4 ADD MSTORE PUSH1 0x20 DUP3 PUSH2 0x300 DUP5 PUSH1 0x8 PUSH2 0x7D0 GAS SUB STATICCALL DUP3 MLOAD DUP2 AND SWAP4 POP POP POP POP SWAP6 SWAP5 POP POP POP POP POP JUMP JUMPDEST PUSH1 0x40 MLOAD PUSH2 0x380 DUP2 ADD PUSH1 0x40 MSTORE PUSH2 0x4F4 PUSH1 0x0 DUP5 ADD CALLDATALOAD PUSH2 0x67 JUMP JUMPDEST PUSH2 0x501 PUSH1 0x20 DUP5 ADD CALLDATALOAD PUSH2 0x67 JUMP JUMPDEST PUSH2 0x50E DUP2 DUP5 DUP7 DUP9 DUP11 PUSH2 0x106 JUMP JUMPDEST DUP1 PUSH1 0x0 MSTORE PUSH1 0x20 PUSH1 0x0 RETURN JUMPDEST PUSH1 0x0 DUP1 REVERT JUMPDEST PUSH1 0x0 DUP1 REVERT JUMPDEST PUSH1 0x0 DUP2 SWAP1 POP DUP3 PUSH1 0x20 PUSH1 0x2 MUL DUP3 ADD GT ISZERO PUSH2 0x53E JUMPI PUSH2 0x53D PUSH2 0x51D JUMP JUMPDEST JUMPDEST SWAP3 SWAP2 POP POP JUMP JUMPDEST PUSH1 0x0 DUP2 SWAP1 POP DUP3 PUSH1 0x40 PUSH1 0x2 MUL DUP3 ADD GT ISZERO PUSH2 0x560 JUMPI PUSH2 0x55F PUSH2 0x51D JUMP JUMPDEST JUMPDEST SWAP3 SWAP2 POP POP JUMP JUMPDEST PUSH1 0x0 DUP1 PUSH1 0x0 DUP1 PUSH2 0x140 DUP6 DUP8 SUB SLT ISZERO PUSH2 0x581 JUMPI PUSH2 0x580 PUSH2 0x518 JUMP JUMPDEST JUMPDEST PUSH1 0x0 PUSH2 0x58F DUP8 DUP3 DUP9 ADD PUSH2 0x522 JUMP JUMPDEST SWAP5 POP POP PUSH1 0x40 PUSH2 0x5A0 DUP8 DUP3 DUP9 ADD PUSH2 0x544 JUMP JUMPDEST SWAP4 POP POP PUSH1 0xC0 PUSH2 0x5B1 DUP8 DUP3 DUP9 ADD PUSH2 0x522 JUMP JUMPDEST SWAP3 POP POP PUSH2 0x100 PUSH2 0x5C3 DUP8 DUP3 DUP9 ADD PUSH2 0x522 JUMP JUMPDEST SWAP2 POP POP SWAP3 SWAP6 SWAP2 SWAP5 POP SWAP3 POP JUMP JUMPDEST PUSH1 0x0 DUP2 ISZERO ISZERO SWAP1 POP SWAP2 SWAP1 POP JUMP JUMPDEST PUSH2 0x5E4 DUP2 PUSH2 0x5CF JUMP JUMPDEST DUP3 MSTORE POP POP JUMP JUMPDEST PUSH1 0x0 PUSH1 0x20 DUP3 ADD SWAP1 POP PUSH2 0x5FF PUSH1 0x0 DUP4 ADD DUP5 PUSH2 0x5DB JUMP JUMPDEST SWAP3 SWAP2 POP POP JUMP INVALID LOG2 PUSH5 0x6970667358 0x22 SLT KECCAK256 DUP16 0xF7 PUSH10 0x85C44A13DC9E371AAAE3 MSIZE 0xEA 0xAC PUSH17 0x4764562AA9939B3BAA5A5BCE4C00566473 PUSH16 0x6C634300081C00330000000000000000 "
        },
        "methodIdentifiers": {
          "verifyProof(uint256[2],uint256[2][2],uint256[2],uint256[2])": "f5c9d69e"
        }
      }
    }
  }
}