{
  "_format": "hh-sol-artifact-1",
  "contractName": "Groth16Verifier",
  "sourceName": "contracts/Groth16Verifier.sol",
  "abi": [
    {
      "inputs": [
        {
          "internalType": "uint256[2]",
          "name": "_pA",
          "type": "uint256[2]"
        },
        {
          "internalType": "uint256[2][2]",
          "name": "_pB",
          "type": "uint256[2][2]"
        },
        {
          "internalType": "uint256[2]",
          "name": "_pC",
          "type": "uint256[2]"
        },
        {
          "internalType": "uint256[2]",
          "name": "_pubSignals",
          "type": "uint256[2]"
        }
      ],
      "name": "verifyProof",
      "outputs": [
        {
          "internalType": "bool",
          "name": "",
          "type": "bool"
        }
      ],
      "stateMutability": "view",
      "type": "function"
    }
  ],
  "bytecode": "0x6080604052348015600f57600080fd5b5061063b8061001f6000396000f3fe608060405234801561001057600080fd5b506004361061002b5760003560e01c8063f5c9d69e14610030575b600080fd5b61004a60048036038101906100459190610566565b610060565b60405161005791906105ea565b60405180910390f35b60006104dc565b7f30644e72e131a029b85045b68181585d2833e84879b9709143e1f593f00000018110610098576000805260206000f35b50565b600060405183815284602082015285604082015260408160608360076107d05a03fa9150816100ce576000805260206000f35b825160408201526020830151606082015260408360808360066107d05a03fa9150816100fe576000805260206000f35b505050505050565b600060808601600087017f16b76df79985f69cd279c87b3b0c0a25ca34446e098bc1e931e019107a1419a281527f01e0997fbd59485d91f0b54a88c4ab1388655e5060c2a2f95ec03b54834bd46e60208201526101a960008801357f145112b77ee1edcca8c92e9ffc316b3d9e8256d0812efa3bcd742d0b319af1917f29520e67168d7985684e461a7dafd1c5019798ac218a8fc74c1aec4c8df3ed328461009b565b6101f860208801357e632145346327e15d8a95a1657a0f4cd211c984d21eb1a8528783c78faa6ba77f28027272f1cc2b0aaff23182c07934a8488064b582611f69489b9d4aef41e5a58461009b565b833582527f30644e72e131a029b85045b68181585d97816a916871ca8d3c208c16d87cfd4760208501357f30644e72e131a029b85045b68181585d97816a916871ca8d3c208c16d87cfd4703066020830152843560408301526020850135606083015260408501356080830152606085013560a08301527f2d4d9aa7e302d9df41749d5507949d05dbea33fbb16c643b22f599a2be6df2e260c08301527f14bedd503c37ceb061d8ec60209fe345ce89830a19230301f076caff004d192660e08301527f0967032fcbf776d1afc985f88877f182d38480a653f2decaa9794cbc3bf3060c6101008301527f0e187847ad4c798374d0d6732bf501847dd68bc0e071241e0213bc7fc13db7ab6101208301527f304cfbd1e08a704a99f5e847d93f8c3caafddec46b7a0d379da69a4d112346a76101408301527f1739c1b1a457a8c7313123d24d2f9192f896b7c63eea05a9d57f06547ad0cec8610160830152600088015161018083015260206000018801516101a08301527f198e9393920d483a7260bfb731fb5d25f1aa493335a9e71297e485b7aef312c26101c08301527f1800deef121f1e76426a00665e5c4479674322d4f75edadd46debd5cd992f6ed6101e08301527f090689d0585ff075ec9e99ad690c3395bc4b313370b38ef355acdadcd122975b6102008301527f12c85ea5db8c6deb4aab71808dcb408fe3d1e7690c43d37b4ce6cc0166fa7daa610220830152853561024083015260208601356102608301527f2d2bbb2f1b7fd5920b5ae8c7b782441f9f5eae515fcdda7c5233ba68eb2748fe6102808301527f040d1a5966cd551726c873488d36cc99513bf68e9baf1a857449b597bd9907f26102a08301527f2835ce2e96c4f8d88bff691e87203d0e067f4f0f2830c7801550b0ff385a47dc6102c08301527f2542316382241909581fe83803540d415044c07673a107a1cfd5eee7b120bbf56102e08301526020826103008460086107d05a03fa82518116935050505095945050505050565b60405161038081016040526104f46000840135610067565b6105016020840135610067565b61050e818486888a610106565b8060005260206000f35b600080fd5b600080fd5b60008190508260206002028201111561053e5761053d61051d565b5b92915050565b6000819050826040600202820111156105605761055f61051d565b5b92915050565b600080600080610140858703121561058157610580610518565b5b600061058f87828801610522565b94505060406105a087828801610544565b93505060c06105b187828801610522565b9250506101006105c387828801610522565b91505092959194509250565b60008115159050919050565b6105e4816105cf565b82525050565b60006020820190506105ff60008301846105db565b9291505056fea26469706673582212208ff76985c44a13dc9e371aaae359eaac704764562aa9939b3baa5a5bce4c005664736f6c634300081c0033",
  "linkReferences": {},
  "deployedLinkReferences": {}
}