{
  "_format": "hh-sol-artifact-1",
  "contractName": "NitroCreditSBT",
  "sourceName": "contracts/NitroCreditSBT.sol",
  "abi": [
    {
      "inputs": [
        {
          "internalType": "address",
          "name": "initialOwner",
          "type": "address"
        },
        {
          "internalType": "address",
          "name": "verifierAddress",
          "type": "address"
        }
      ],
      "stateMutability": "nonpayable",
      "type": "constructor"
    },
    {
      "inputs": [
        {
          "internalType": "address",
          "name": "sender",
          "type": "address"
        },
        {
          "internalType": "uint256",
          "name": "tokenId",
          "type": "uint256"
        },
        {
          "internalType": "address",
          "name": "owner",
          "type": "address"
        }
      ],
      "name": "ERC721IncorrectOwner",
      "type": "error"
    },
    {
      "inputs": [
        {
          "internalType": "address",
          "name": "operator",
          "type": "address"
        },
        {
          "internalType": "uint256",
          "name": "tokenId",
          "type": "uint256"
        }
      ],
      "name": "ERC721InsufficientApproval",
      "type": "error"
    },
    {
      "inputs": [
        {
          "internalType": "address",
          "name": "approver",
          "type": "address"
        }
      ],
      "name": "ERC721InvalidApprover",
      "type": "error"
    },
    {
      "inputs": [
        {
          "internalType": "address",
          "name": "operator",
          "type": "address"
        }
      ],
      "name": "ERC721InvalidOperator",
      "type": "error"
    },
    {
      "inputs": [
        {
          "internalType": "address",
          "name": "owner",
          "type": "address"
        }
      ],
      "name": "ERC721InvalidOwner",
      "type": "error"
    },
    {
      "inputs": [
        {
          "internalType": "address",
          "name": "receiver",
          "type": "address"
        }
      ],
      "name": "ERC721InvalidReceiver",
      "type": "error"
    },
    {
      "inputs": [
        {
          "internalType": "address",
          "name": "sender",
          "type": "address"
        }
      ],
      "name": "ERC721InvalidSender",
      "type": "error"
    },
    {
      "inputs": [
        {
          "internalType": "uint256",
          "name": "tokenId",
          "type": "uint256"
        }
      ],
      "name": "ERC721NonexistentToken",
      "type": "error"
    },
    {
      "inputs": [
        {
          "internalType": "address",
          "name": "owner",
          "type": "address"
        }
      ],
      "name": "OwnableInvalidOwner",
      "type": "error"
    },
    {
      "inputs": [
        {
          "internalType": "address",
          "name": "account",
          "type": "address"
        }
      ],
      "name": "OwnableUnauthorizedAccount",
      "type": "error"
    },
    {
      "anonymous": false,
      "inputs": [
        {
          "indexed": true,
          "internalType": "uint256",
          "name": "tokenId",
          "type": "uint256"
        },
        {
          "indexed": false,
          "internalType": "uint256",
          "name": "timestamp",
          "type": "uint256"
        }
      ],
      "name": "ActivityRecorded",
      "type": "event"
    },
    {
      "anonymous": false,
      "inputs": [
        {
          "indexed": true,
          "internalType": "address",
          "name": "owner",
          "type": "address"
        },
        {
          "indexed": true,
          "internalType": "address",
          "name": "approved",
          "type": "address"
        },
        {
          "indexed": true,
          "internalType": "uint256",
          "name": "tokenId",
          "type": "uint256"
        }
      ],
      "name": "Approval",
      "type": "event"
    },
    {
      "anonymous": false,
      "inputs": [
        {
          "indexed": true,
          "internalType": "address",
          "name": "owner",
          "type": "address"
        },
        {
          "indexed": true,
          "internalType": "address",
          "name": "operator",
          "type": "address"
        },
        {
          "indexed": false,
          "internalType": "bool",
          "name": "approved",
          "type": "bool"
        }
      ],
      "name": "ApprovalForAll",
      "type": "event"
    },
    {
      "anonymous": false,
      "inputs": [
        {
          "indexed": false,
          "internalType": "uint256",
          "name": "_fromTokenId",
          "type": "uint256"
        },
        {
          "indexed": false,
          "internalType": "uint256",
          "name": "_toTokenId",
          "type": "uint256"
        }
      ],
      "name": "BatchMetadataUpdate",
      "type": "event"
    },
    {
      "anonymous": false,
      "inputs": [
        {
          "indexed": true,
          "internalType": "uint256",
          "name": "tokenId",
          "type": "uint256"
        },
        {
          "indexed": false,
          "internalType": "uint256",
          "name": "newScore",
          "type": "uint256"
        }
      ],
      "name": "CreditScoreUpdated",
      "type": "event"
    },
    {
      "anonymous": false,
      "inputs": [
        {
          "indexed": false,
          "internalType": "uint256",
          "name": "_tokenId",
          "type": "uint256"
        }
      ],
      "name": "MetadataUpdate",
      "type": "event"
    },
    {
      "anonymous": false,
      "inputs": [
        {
          "indexed": true,
          "internalType": "address",
          "name": "previousOwner",
          "type": "address"
        },
        {
          "indexed": true,
          "internalType": "address",
          "name": "newOwner",
          "type": "address"
        }
      ],
      "name": "OwnershipTransferred",
      "type": "event"
    },
    {
      "anonymous": false,
      "inputs": [
        {
          "indexed": true,
          "internalType": "uint256",
          "name": "tokenId",
          "type": "uint256"
        },
        {
          "indexed": false,
          "internalType": "uint256",
          "name": "newScore",
          "type": "uint256"
        }
      ],
      "name": "ReputationUpdated",
      "type": "event"
    },
    {
      "anonymous": false,
      "inputs": [
        {
          "indexed": true,
          "internalType": "address",
          "name": "to",
          "type": "address"
        },
        {
          "indexed": true,
          "internalType": "uint256",
          "name": "tokenId",
          "type": "uint256"
        }
      ],
      "name": "TokenMinted",
      "type": "event"
    },
    {
      "anonymous": false,
      "inputs": [
        {
          "indexed": true,
          "internalType": "address",
          "name": "from",
          "type": "address"
        },
        {
          "indexed": true,
          "internalType": "address",
          "name": "to",
          "type": "address"
        },
        {
          "indexed": true,
          "internalType": "uint256",
          "name": "tokenId",
          "type": "uint256"
        }
      ],
      "name": "Transfer",
      "type": "event"
    },
    {
      "inputs": [],
      "name": "ageVerifier",
      "outputs": [
        {
          "internalType": "contract Groth16Verifier",
          "name": "",
          "type": "address"
        }
      ],
      "stateMutability": "view",
      "type": "function"
    },
    {
      "inputs": [
        {
          "internalType": "address",
          "name": "to",
          "type": "address"
        },
        {
          "internalType": "uint256",
          "name": "tokenId",
          "type": "uint256"
        }
      ],
      "name": "approve",
      "outputs": [],
      "stateMutability": "nonpayable",
      "type": "function"
    },
    {
      "inputs": [
        {
          "internalType": "address",
          "name": "owner",
          "type": "address"
        }
      ],
      "name": "balanceOf",
      "outputs": [
        {
          "internalType": "uint256",
          "name": "",
          "type": "uint256"
        }
      ],
      "stateMutability": "view",
      "type": "function"
    },
    {
      "inputs": [
        {
          "internalType": "uint256",
          "name": "",
          "type": "uint256"
        }
      ],
      "name": "creditProfiles",
      "outputs": [
        {
          "internalType": "uint256",
          "name": "creditScore",
          "type": "uint256"
        },
        {
          "internalType": "uint256",
          "name": "reputationScore",
          "type": "uint256"
        },
        {
          "internalType": "uint256",
          "name": "lastActivity",
          "type": "uint256"
        },
        {
          "internalType": "uint256",
          "name": "totalTransactions",
          "type": "uint256"
        },
        {
          "internalType": "bool",
          "name": "isActive",
          "type": "bool"
        }
      ],
      "stateMutability": "view",
      "type": "function"
    },
    {
      "inputs": [
        {
          "internalType": "uint256",
          "name": "tokenId",
          "type": "uint256"
        }
      ],
      "name": "getApproved",
      "outputs": [
        {
          "internalType": "address",
          "name": "",
          "type": "address"
        }
      ],
      "stateMutability": "view",
      "type": "function"
    },
    {
      "inputs": [
        {
          "internalType": "uint256",
          "name": "tokenId",
          "type": "uint256"
        }
      ],
      "name": "getCreditProfile",
      "outputs": [
        {
          "components": [
            {
              "internalType": "uint256",
              "name": "creditScore",
              "type": "uint256"
            },
            {
              "internalType": "uint256",
              "name": "reputationScore",
              "type": "uint256"
            },
            {
              "internalType": "uint256",
              "name": "lastActivity",
              "type": "uint256"
            },
            {
              "internalType": "uint256",
              "name": "totalTransactions",
              "type": "uint256"
            },
            {
              "internalType": "bool",
              "name": "isActive",
              "type": "bool"
            }
          ],
          "internalType": "struct NitroCreditSBT.CreditProfile",
          "name": "",
          "type": "tuple"
        }
      ],
      "stateMutability": "view",
      "type": "function"
    },
    {
      "inputs": [
        {
          "internalType": "address",
          "name": "user",
          "type": "address"
        }
      ],
      "name": "getTokenId",
      "outputs": [
        {
          "internalType": "uint256",
          "name": "",
          "type": "uint256"
        }
      ],
      "stateMutability": "view",
      "type": "function"
    },
    {
      "inputs": [
        {
          "internalType": "address",
          "name": "user",
          "type": "address"
        }
      ],
      "name": "hasToken",
      "outputs": [
        {
          "internalType": "bool",
          "name": "",
          "type": "bool"
        }
      ],
      "stateMutability": "view",
      "type": "function"
    },
    {
      "inputs": [
        {
          "internalType": "address",
          "name": "owner",
          "type": "address"
        },
        {
          "internalType": "address",
          "name": "operator",
          "type": "address"
        }
      ],
      "name": "isApprovedForAll",
      "outputs": [
        {
          "internalType": "bool",
          "name": "",
          "type": "bool"
        }
      ],
      "stateMutability": "view",
      "type": "function"
    },
    {
      "inputs": [
        {
          "internalType": "address",
          "name": "to",
          "type": "address"
        },
        {
          "internalType": "string",
          "name": "uri",
          "type": "string"
        },
        {
          "internalType": "uint256[2]",
          "name": "a",
          "type": "uint256[2]"
        },
        {
          "internalType": "uint256[2][2]",
          "name": "b",
          "type": "uint256[2][2]"
        },
        {
          "internalType": "uint256[2]",
          "name": "c",
          "type": "uint256[2]"
        },
        {
          "internalType": "uint256[3]",
          "name": "input",
          "type": "uint256[3]"
        }
      ],
      "name": "mint",
      "outputs": [],
      "stateMutability": "nonpayable",
      "type": "function"
    },
    {
      "inputs": [],
      "name": "name",
      "outputs": [
        {
          "internalType": "string",
          "name": "",
          "type": "string"
        }
      ],
      "stateMutability": "view",
      "type": "function"
    },
    {
      "inputs": [],
      "name": "owner",
      "outputs": [
        {
          "internalType": "address",
          "name": "",
          "type": "address"
        }
      ],
      "stateMutability": "view",
      "type": "function"
    },
    {
      "inputs": [
        {
          "internalType": "uint256",
          "name": "tokenId",
          "type": "uint256"
        }
      ],
      "name": "ownerOf",
      "outputs": [
        {
          "internalType": "address",
          "name": "",
          "type": "address"
        }
      ],
      "stateMutability": "view",
      "type": "function"
    },
    {
      "inputs": [],
      "name": "renounceOwnership",
      "outputs": [],
      "stateMutability": "nonpayable",
      "type": "function"
    },
    {
      "inputs": [
        {
          "internalType": "address",
          "name": "from",
          "type": "address"
        },
        {
          "internalType": "address",
          "name": "to",
          "type": "address"
        },
        {
          "internalType": "uint256",
          "name": "tokenId",
          "type": "uint256"
        }
      ],
      "name": "safeTransferFrom",
      "outputs": [],
      "stateMutability": "nonpayable",
      "type": "function"
    },
    {
      "inputs": [
        {
          "internalType": "address",
          "name": "from",
          "type": "address"
        },
        {
          "internalType": "address",
          "name": "to",
          "type": "address"
        },
        {
          "internalType": "uint256",
          "name": "tokenId",
          "type": "uint256"
        },
        {
          "internalType": "bytes",
          "name": "data",
          "type": "bytes"
        }
      ],
      "name": "safeTransferFrom",
      "outputs": [],
      "stateMutability": "nonpayable",
      "type": "function"
    },
    {
      "inputs": [
        {
          "internalType": "address",
          "name": "operator",
          "type": "address"
        },
        {
          "internalType": "bool",
          "name": "approved",
          "type": "bool"
        }
      ],
      "name": "setApprovalForAll",
      "outputs": [],
      "stateMutability": "nonpayable",
      "type": "function"
    },
    {
      "inputs": [
        {
          "internalType": "bytes4",
          "name": "interfaceId",
          "type": "bytes4"
        }
      ],
      "name": "supportsInterface",
      "outputs": [
        {
          "internalType": "bool",
          "name": "",
          "type": "bool"
        }
      ],
      "stateMutability": "view",
      "type": "function"
    },
    {
      "inputs": [],
      "name": "symbol",
      "outputs": [
        {
          "internalType": "string",
          "name": "",
          "type": "string"
        }
      ],
      "stateMutability": "view",
      "type": "function"
    },
    {
      "inputs": [
        {
          "internalType": "uint256",
          "name": "tokenId",
          "type": "uint256"
        }
      ],
      "name": "tokenURI",
      "outputs": [
        {
          "internalType": "string",
          "name": "",
          "type": "string"
        }
      ],
      "stateMutability": "view",
      "type": "function"
    },
    {
      "inputs": [
        {
          "internalType": "address",
          "name": "from",
          "type": "address"
        },
        {
          "internalType": "address",
          "name": "to",
          "type": "address"
        },
        {
          "internalType": "uint256",
          "name": "tokenId",
          "type": "uint256"
        }
      ],
      "name": "transferFrom",
      "outputs": [],
      "stateMutability": "nonpayable",
      "type": "function"
    },
    {
      "inputs": [
        {
          "internalType": "address",
          "name": "newOwner",
          "type": "address"
        }
      ],
      "name": "transferOwnership",
      "outputs": [],
      "stateMutability": "nonpayable",
      "type": "function"
    },
    {
      "inputs": [
        {
          "internalType": "uint256",
          "name": "tokenId",
          "type": "uint256"
        },
        {
          "internalType": "uint256",
          "name": "newScore",
          "type": "uint256"
        }
      ],
      "name": "updateCreditScore",
      "outputs": [],
      "stateMutability": "nonpayable",
      "type": "function"
    },
    {
      "inputs": [
        {
          "internalType": "uint256",
          "name": "tokenId",
          "type": "uint256"
        },
        {
          "internalType": "int256",
          "name": "points",
          "type": "int256"
        }
      ],
      "name": "updateReputation",
      "outputs": [],
      "stateMutability": "nonpayable",
      "type": "function"
    },
    {
      "inputs": [
        {
          "internalType": "address",
          "name": "",
          "type": "address"
        }
      ],
      "name": "userTokens",
      "outputs": [
        {
          "internalType": "uint256",
          "name": "",
          "type": "uint256"
        }
      ],
      "stateMutability": "view",
      "type": "function"
    }
  ],
  "bytecode": "0x608060405234801561001057600080fd5b5060405161405d38038061405d833981810160405281019061003291906102bc565b816040518060400160405280601081526020017f4e6974726f2043726564697420534254000000000000000000000000000000008152506040518060400160405280600581526020017f4e4353425400000000000000000000000000000000000000000000000000000081525081600090816100ae919061054c565b5080600190816100be919061054c565b505050600073ffffffffffffffffffffffffffffffffffffffff168173ffffffffffffffffffffffffffffffffffffffff16036101335760006040517f1e4fbdf700000000000000000000000000000000000000000000000000000000815260040161012a919061062d565b60405180910390fd5b6101428161019360201b60201c565b50600160088190555080600960006101000a81548173ffffffffffffffffffffffffffffffffffffffff021916908373ffffffffffffffffffffffffffffffffffffffff1602179055505050610648565b6000600760009054906101000a900473ffffffffffffffffffffffffffffffffffffffff16905081600760006101000a81548173ffffffffffffffffffffffffffffffffffffffff021916908373ffffffffffffffffffffffffffffffffffffffff1602179055508173ffffffffffffffffffffffffffffffffffffffff168173ffffffffffffffffffffffffffffffffffffffff167f8be0079c531659141344cd1fd0a4f28419497f9722a3daafe3b4186f6b6457e060405160405180910390a35050565b600080fd5b600073ffffffffffffffffffffffffffffffffffffffff82169050919050565b60006102898261025e565b9050919050565b6102998161027e565b81146102a457600080fd5b50565b6000815190506102b681610290565b92915050565b600080604083850312156102d3576102d2610259565b5b60006102e1858286016102a7565b92505060206102f2858286016102a7565b9150509250929050565b600081519050919050565b7f4e487b7100000000000000000000000000000000000000000000000000000000600052604160045260246000fd5b7f4e487b7100000000000000000000000000000000000000000000000000000000600052602260045260246000fd5b6000600282049050600182168061037d57607f821691505b6020821081036103905761038f610336565b5b50919050565b60008190508160005260206000209050919050565b60006020601f8301049050919050565b600082821b905092915050565b6000600883026103f87fffffffffffffffffffffffffffffffffffffffffffffffffffffffffffffffff826103bb565b61040286836103bb565b95508019841693508086168417925050509392505050565b6000819050919050565b6000819050919050565b600061044961044461043f8461041a565b610424565b61041a565b9050919050565b6000819050919050565b6104638361042e565b61047761046f82610450565b8484546103c8565b825550505050565b600090565b61048c61047f565b61049781848461045a565b505050565b5b818110156104bb576104b0600082610484565b60018101905061049d565b5050565b601f821115610500576104d181610396565b6104da846103ab565b810160208510156104e9578190505b6104fd6104f5856103ab565b83018261049c565b50505b505050565b600082821c905092915050565b600061052360001984600802610505565b1980831691505092915050565b600061053c8383610512565b9150826002028217905092915050565b610555826102fc565b67ffffffffffffffff81111561056e5761056d610307565b5b6105788254610365565b6105838282856104bf565b600060209050601f8311600181146105b657600084156105a4578287015190505b6105ae8582610530565b865550610616565b601f1984166105c486610396565b60005b828110156105ec578489015182556001820191506020850194506020810190506105c7565b868310156106095784890151610605601f891682610512565b8355505b6001600288020188555050505b505050505050565b6106278161027e565b82525050565b6000602082019050610642600083018461061e565b92915050565b613a06806106576000396000f3fe608060405234801561001057600080fd5b50600436106101735760003560e01c80637f43cf18116100de578063b88d4fde11610097578063e985e9c511610071578063e985e9c51461045e578063ed498fa81461048e578063f1537686146104be578063f2fde38b146104ee57610173565b8063b88d4fde146103e2578063c87b56dd146103fe578063d9e57df21461042e57610173565b80637f43cf181461032257806386f27bd01461033e5780638da5cb5b1461035a57806395d89b41146103785780639bb0f59914610396578063a22cb465146103c657610173565b806323b872dd1161013057806323b872dd1461026457806342842e0e14610280578063464c401d1461029c5780636352211e146102b857806370a08231146102e8578063715018a61461031857610173565b806301ffc9a71461017857806306fdde03146101a8578063081812fc146101c6578063095ea7b3146101f65780630ae41c6d146102125780630d12479f14610246575b600080fd5b610192600480360381019061018d9190612443565b61050a565b60405161019f919061248b565b60405180910390f35b6101b061051c565b6040516101bd9190612536565b60405180910390f35b6101e060048036038101906101db919061258e565b6105ae565b6040516101ed91906125fc565b60405180910390f35b610210600480360381019061020b9190612643565b6105ca565b005b61022c6004803603810190610227919061258e565b6105e0565b60405161023d959493929190612692565b60405180910390f35b61024e610623565b60405161025b9190612744565b60405180910390f35b61027e6004803603810190610279919061275f565b610649565b005b61029a6004803603810190610295919061275f565b61074b565b005b6102b660048036038101906102b191906127e8565b61076b565b005b6102d260048036038101906102cd919061258e565b6108ce565b6040516102df91906125fc565b60405180910390f35b61030260048036038101906102fd9190612828565b6108e0565b60405161030f9190612855565b60405180910390f35b61032061099a565b005b61033c60048036038101906103379190612870565b6109ae565b005b61035860048036038101906103539190612bfd565b610a9a565b005b610362610d53565b60405161036f91906125fc565b60405180910390f35b610380610d7d565b60405161038d9190612536565b60405180910390f35b6103b060048036038101906103ab9190612828565b610e0f565b6040516103bd919061248b565b60405180910390f35b6103e060048036038101906103db9190612cd5565b610e5b565b005b6103fc60048036038101906103f79190612db6565b610e71565b005b6104186004803603810190610413919061258e565b610e96565b6040516104259190612536565b60405180910390f35b6104486004803603810190610443919061258e565b610ea8565b6040516104559190612ebf565b60405180910390f35b61047860048036038101906104739190612eda565b610f60565b604051610485919061248b565b60405180910390f35b6104a860048036038101906104a39190612828565b610ff4565b6040516104b59190612855565b60405180910390f35b6104d860048036038101906104d39190612828565b61100c565b6040516104e59190612855565b60405180910390f35b61050860048036038101906105039190612828565b611055565b005b6000610515826110db565b9050919050565b60606000805461052b90612f49565b80601f016020809104026020016040519081016040528092919081815260200182805461055790612f49565b80156105a45780601f10610579576101008083540402835291602001916105a4565b820191906000526020600020905b81548152906001019060200180831161058757829003601f168201915b5050505050905090565b60006105b98261113c565b506105c3826111c4565b9050919050565b6105dc82826105d7611201565b611209565b5050565b600a6020528060005260406000206000915090508060000154908060010154908060020154908060030154908060040160009054906101000a900460ff16905085565b600960009054906101000a900473ffffffffffffffffffffffffffffffffffffffff1681565b600073ffffffffffffffffffffffffffffffffffffffff168273ffffffffffffffffffffffffffffffffffffffff16036106bb5760006040517f64a0ae920000000000000000000000000000000000000000000000000000000081526004016106b291906125fc565b60405180910390fd5b60006106cf83836106ca611201565b61121b565b90508373ffffffffffffffffffffffffffffffffffffffff168173ffffffffffffffffffffffffffffffffffffffff1614610745578382826040517f64283d7b00000000000000000000000000000000000000000000000000000000815260040161073c93929190612f7a565b60405180910390fd5b50505050565b61076683838360405180602001604052806000815250610e71565b505050565b6107736112e8565b61077c8261136f565b6107bb576040517f08c379a00000000000000000000000000000000000000000000000000000000081526004016107b290612ffd565b60405180910390fd5b6000600a600084815260200190815260200160002090506000808313156107f3578282600101546107ec919061304c565b905061082b565b826107fd90613080565b82600101541161080e576000610828565b8261081890613080565b826001015461082791906130c8565b5b90505b8082600101819055504282600201819055506001826003016000828254610852919061304c565b92505081905550837ea4f8488cd701f9a77136eb5c91d5e2edef3c38001ca7148525acf8a2626481826040516108889190612855565b60405180910390a2837fdfaba92e104b3f59aee40fe034b0f5b1103bd7bbbfd9f8dad3d2464283afe7de426040516108c09190612855565b60405180910390a250505050565b60006108d98261113c565b9050919050565b60008073ffffffffffffffffffffffffffffffffffffffff168273ffffffffffffffffffffffffffffffffffffffff16036109535760006040517f89c62b6400000000000000000000000000000000000000000000000000000000815260040161094a91906125fc565b60405180910390fd5b600360008373ffffffffffffffffffffffffffffffffffffffff1673ffffffffffffffffffffffffffffffffffffffff168152602001908152602001600020549050919050565b6109a26112e8565b6109ac6000611388565b565b6109b66112e8565b6109bf8261136f565b6109fe576040517f08c379a00000000000000000000000000000000000000000000000000000000081526004016109f590612ffd565b60405180910390fd5b6103e8811115610a43576040517f08c379a0000000000000000000000000000000000000000000000000000000008152600401610a3a90613148565b60405180910390fd5b80600a600084815260200190815260200160002060000181905550817fa327d338bc836383f6e1e88c1cc3f2453f57da29acdb8c91f12c591be40e00d782604051610a8e9190612855565b60405180910390a25050565b610aa26112e8565b856000600b60008373ffffffffffffffffffffffffffffffffffffffff1673ffffffffffffffffffffffffffffffffffffffff1681526020019081526020016000205414610b25576040517f08c379a0000000000000000000000000000000000000000000000000000000008152600401610b1c906131b4565b60405180910390fd5b600960009054906101000a900473ffffffffffffffffffffffffffffffffffffffff1673ffffffffffffffffffffffffffffffffffffffff166311479fea868686866040518563ffffffff1660e01b8152600401610b8694939291906133f2565b602060405180830381865afa158015610ba3573d6000803e3d6000fd5b505050506040513d601f19601f82011682018060405250810190610bc7919061344e565b610c06576040517f08c379a0000000000000000000000000000000000000000000000000000000008152600401610bfd906134c7565b60405180910390fd5b600060086000815480929190610c1b906134e7565b9190505590506040518060a001604052806101f48152602001600081526020014281526020016000815260200160011515815250600a60008381526020019081526020016000206000820151816000015560208201518160010155604082015181600201556060820151816003015560808201518160040160006101000a81548160ff021916908315150217905550905050610cb7888261144e565b610cc1818861146c565b80600b60008a73ffffffffffffffffffffffffffffffffffffffff1673ffffffffffffffffffffffffffffffffffffffff16815260200190815260200160002081905550808873ffffffffffffffffffffffffffffffffffffffff167fb9144c96c86541f6fa89c9f2f02495cccf4b08cd6643e26d34ee00aa586558a860405160405180910390a35050505050505050565b6000600760009054906101000a900473ffffffffffffffffffffffffffffffffffffffff16905090565b606060018054610d8c90612f49565b80601f0160208091040260200160405190810160405280929190818152602001828054610db890612f49565b8015610e055780601f10610dda57610100808354040283529160200191610e05565b820191906000526020600020905b815481529060010190602001808311610de857829003601f168201915b5050505050905090565b600080600b60008473ffffffffffffffffffffffffffffffffffffffff1673ffffffffffffffffffffffffffffffffffffffff1681526020019081526020016000205414159050919050565b610e6d610e66611201565b83836114c8565b5050565b610e7c848484610649565b610e90610e87611201565b85858585611637565b50505050565b6060610ea1826117e8565b9050919050565b610eb06123a6565b610eb98261136f565b610ef8576040517f08c379a0000000000000000000000000000000000000000000000000000000008152600401610eef90612ffd565b60405180910390fd5b600a60008381526020019081526020016000206040518060a0016040529081600082015481526020016001820154815260200160028201548152602001600382015481526020016004820160009054906101000a900460ff1615151515815250509050919050565b6000600560008473ffffffffffffffffffffffffffffffffffffffff1673ffffffffffffffffffffffffffffffffffffffff16815260200190815260200160002060008373ffffffffffffffffffffffffffffffffffffffff1673ffffffffffffffffffffffffffffffffffffffff16815260200190815260200160002060009054906101000a900460ff16905092915050565b600b6020528060005260406000206000915090505481565b6000600b60008373ffffffffffffffffffffffffffffffffffffffff1673ffffffffffffffffffffffffffffffffffffffff168152602001908152602001600020549050919050565b61105d6112e8565b600073ffffffffffffffffffffffffffffffffffffffff168173ffffffffffffffffffffffffffffffffffffffff16036110cf5760006040517f1e4fbdf70000000000000000000000000000000000000000000000000000000081526004016110c691906125fc565b60405180910390fd5b6110d881611388565b50565b6000634906490660e01b7bffffffffffffffffffffffffffffffffffffffffffffffffffffffff1916827bffffffffffffffffffffffffffffffffffffffffffffffffffffffff191614806111355750611134826118fb565b5b9050919050565b600080611148836119dd565b9050600073ffffffffffffffffffffffffffffffffffffffff168173ffffffffffffffffffffffffffffffffffffffff16036111bb57826040517f7e2732890000000000000000000000000000000000000000000000000000000081526004016111b29190612855565b60405180910390fd5b80915050919050565b60006004600083815260200190815260200160002060009054906101000a900473ffffffffffffffffffffffffffffffffffffffff169050919050565b600033905090565b6112168383836001611a1a565b505050565b600080611227846119dd565b9050600073ffffffffffffffffffffffffffffffffffffffff168173ffffffffffffffffffffffffffffffffffffffff16141580156112935750600073ffffffffffffffffffffffffffffffffffffffff168573ffffffffffffffffffffffffffffffffffffffff1614155b156112d3576040517f08c379a00000000000000000000000000000000000000000000000000000000081526004016112ca906135a1565b60405180910390fd5b6112de858585611bdf565b9150509392505050565b6112f0611201565b73ffffffffffffffffffffffffffffffffffffffff1661130e610d53565b73ffffffffffffffffffffffffffffffffffffffff161461136d57611331611201565b6040517f118cdaa700000000000000000000000000000000000000000000000000000000815260040161136491906125fc565b60405180910390fd5b565b60008082118015611381575060085482105b9050919050565b6000600760009054906101000a900473ffffffffffffffffffffffffffffffffffffffff16905081600760006101000a81548173ffffffffffffffffffffffffffffffffffffffff021916908373ffffffffffffffffffffffffffffffffffffffff1602179055508173ffffffffffffffffffffffffffffffffffffffff168173ffffffffffffffffffffffffffffffffffffffff167f8be0079c531659141344cd1fd0a4f28419497f9722a3daafe3b4186f6b6457e060405160405180910390a35050565b611468828260405180602001604052806000815250611df9565b5050565b8060066000848152602001908152602001600020908161148c9190613763565b507ff8e1a15aba9398e019f0b49df1a4fde98ee17ae345cb5f6b5e2c27f5033e8ce7826040516114bc9190612855565b60405180910390a15050565b600073ffffffffffffffffffffffffffffffffffffffff168273ffffffffffffffffffffffffffffffffffffffff160361153957816040517f5b08ba1800000000000000000000000000000000000000000000000000000000815260040161153091906125fc565b60405180910390fd5b80600560008573ffffffffffffffffffffffffffffffffffffffff1673ffffffffffffffffffffffffffffffffffffffff16815260200190815260200160002060008473ffffffffffffffffffffffffffffffffffffffff1673ffffffffffffffffffffffffffffffffffffffff16815260200190815260200160002060006101000a81548160ff0219169083151502179055508173ffffffffffffffffffffffffffffffffffffffff168373ffffffffffffffffffffffffffffffffffffffff167f17307eab39ab6107e8899845ad3d59bd9653f200f220920489ca2b5937696c318360405161162a919061248b565b60405180910390a3505050565b60008373ffffffffffffffffffffffffffffffffffffffff163b11156117e1578273ffffffffffffffffffffffffffffffffffffffff1663150b7a02868685856040518563ffffffff1660e01b8152600401611696949392919061388a565b6020604051808303816000875af19250505080156116d257506040513d601f19601f820116820180604052508101906116cf91906138eb565b60015b611756573d8060008114611702576040519150601f19603f3d011682016040523d82523d6000602084013e611707565b606091505b50600081510361174e57836040517f64a0ae9200000000000000000000000000000000000000000000000000000000815260040161174591906125fc565b60405180910390fd5b805181602001fd5b63150b7a0260e01b7bffffffffffffffffffffffffffffffffffffffffffffffffffffffff1916817bffffffffffffffffffffffffffffffffffffffffffffffffffffffff1916146117df57836040517f64a0ae920000000000000000000000000000000000000000000000000000000081526004016117d691906125fc565b60405180910390fd5b505b5050505050565b60606117f38261113c565b50600060066000848152602001908152602001600020805461181490612f49565b80601f016020809104026020016040519081016040528092919081815260200182805461184090612f49565b801561188d5780601f106118625761010080835404028352916020019161188d565b820191906000526020600020905b81548152906001019060200180831161187057829003601f168201915b50505050509050600061189e611e1d565b905060008151036118b35781925050506118f6565b6000825111156118e85780826040516020016118d0929190613954565b604051602081830303815290604052925050506118f6565b6118f184611e34565b925050505b919050565b60007f80ac58cd000000000000000000000000000000000000000000000000000000007bffffffffffffffffffffffffffffffffffffffffffffffffffffffff1916827bffffffffffffffffffffffffffffffffffffffffffffffffffffffff191614806119c657507f5b5e139f000000000000000000000000000000000000000000000000000000007bffffffffffffffffffffffffffffffffffffffffffffffffffffffff1916827bffffffffffffffffffffffffffffffffffffffffffffffffffffffff1916145b806119d657506119d582611e9d565b5b9050919050565b60006002600083815260200190815260200160002060009054906101000a900473ffffffffffffffffffffffffffffffffffffffff169050919050565b8080611a535750600073ffffffffffffffffffffffffffffffffffffffff168273ffffffffffffffffffffffffffffffffffffffff1614155b15611b87576000611a638461113c565b9050600073ffffffffffffffffffffffffffffffffffffffff168373ffffffffffffffffffffffffffffffffffffffff1614158015611ace57508273ffffffffffffffffffffffffffffffffffffffff168173ffffffffffffffffffffffffffffffffffffffff1614155b8015611ae15750611adf8184610f60565b155b15611b2357826040517fa9fbf51f000000000000000000000000000000000000000000000000000000008152600401611b1a91906125fc565b60405180910390fd5b8115611b8557838573ffffffffffffffffffffffffffffffffffffffff168273ffffffffffffffffffffffffffffffffffffffff167f8c5be1e5ebec7d5bd14f71427d1e84f3dd0314c0f7b2291e5b200ac8c7c3b92560405160405180910390a45b505b836004600085815260200190815260200160002060006101000a81548173ffffffffffffffffffffffffffffffffffffffff021916908373ffffffffffffffffffffffffffffffffffffffff16021790555050505050565b600080611beb846119dd565b9050600073ffffffffffffffffffffffffffffffffffffffff168373ffffffffffffffffffffffffffffffffffffffff1614611c2d57611c2c818486611f07565b5b600073ffffffffffffffffffffffffffffffffffffffff168173ffffffffffffffffffffffffffffffffffffffff1614611cbe57611c6f600085600080611a1a565b6001600360008373ffffffffffffffffffffffffffffffffffffffff1673ffffffffffffffffffffffffffffffffffffffff168152602001908152602001600020600082825403925050819055505b600073ffffffffffffffffffffffffffffffffffffffff168573ffffffffffffffffffffffffffffffffffffffff1614611d41576001600360008773ffffffffffffffffffffffffffffffffffffffff1673ffffffffffffffffffffffffffffffffffffffff168152602001908152602001600020600082825401925050819055505b846002600086815260200190815260200160002060006101000a81548173ffffffffffffffffffffffffffffffffffffffff021916908373ffffffffffffffffffffffffffffffffffffffff160217905550838573ffffffffffffffffffffffffffffffffffffffff168273ffffffffffffffffffffffffffffffffffffffff167fddf252ad1be2c89b69c2b068fc378daa952ba7f163c4a11628f55a4df523b3ef60405160405180910390a4809150509392505050565b611e038383611fcb565b611e18611e0e611201565b6000858585611637565b505050565b606060405180602001604052806000815250905090565b6060611e3f8261113c565b506000611e4a611e1d565b90506000815111611e6a5760405180602001604052806000815250611e95565b80611e74846120c4565b604051602001611e85929190613954565b6040516020818303038152906040525b915050919050565b60007f01ffc9a7000000000000000000000000000000000000000000000000000000007bffffffffffffffffffffffffffffffffffffffffffffffffffffffff1916827bffffffffffffffffffffffffffffffffffffffffffffffffffffffff1916149050919050565b611f12838383612192565b611fc657600073ffffffffffffffffffffffffffffffffffffffff168373ffffffffffffffffffffffffffffffffffffffff1603611f8757806040517f7e273289000000000000000000000000000000000000000000000000000000008152600401611f7e9190612855565b60405180910390fd5b81816040517f177e802f000000000000000000000000000000000000000000000000000000008152600401611fbd929190613978565b60405180910390fd5b505050565b600073ffffffffffffffffffffffffffffffffffffffff168273ffffffffffffffffffffffffffffffffffffffff160361203d5760006040517f64a0ae9200000000000000000000000000000000000000000000000000000000815260040161203491906125fc565b60405180910390fd5b600061204b8383600061121b565b9050600073ffffffffffffffffffffffffffffffffffffffff168173ffffffffffffffffffffffffffffffffffffffff16146120bf5760006040517f73c6ac6e0000000000000000000000000000000000000000000000000000000081526004016120b691906125fc565b60405180910390fd5b505050565b6060600060016120d384612253565b01905060008167ffffffffffffffff8111156120f2576120f16128ba565b5b6040519080825280601f01601f1916602001820160405280156121245781602001600182028036833780820191505090505b509050600082602001820190505b600115612187578080600190039150507f3031323334353637383961626364656600000000000000000000000000000000600a86061a8153600a858161217b5761217a6139a1565b5b04945060008503612132575b819350505050919050565b60008073ffffffffffffffffffffffffffffffffffffffff168373ffffffffffffffffffffffffffffffffffffffff161415801561224a57508273ffffffffffffffffffffffffffffffffffffffff168473ffffffffffffffffffffffffffffffffffffffff16148061220b575061220a8484610f60565b5b8061224957508273ffffffffffffffffffffffffffffffffffffffff16612231836111c4565b73ffffffffffffffffffffffffffffffffffffffff16145b5b90509392505050565b600080600090507a184f03e93ff9f4daa797ed6e38ed64bf6a1f01000000000000000083106122b1577a184f03e93ff9f4daa797ed6e38ed64bf6a1f01000000000000000083816122a7576122a66139a1565b5b0492506040810190505b6d04ee2d6d415b85acef810000000083106122ee576d04ee2d6d415b85acef810000000083816122e4576122e36139a1565b5b0492506020810190505b662386f26fc10000831061231d57662386f26fc100008381612313576123126139a1565b5b0492506010810190505b6305f5e1008310612346576305f5e100838161233c5761233b6139a1565b5b0492506008810190505b612710831061236b576127108381612361576123606139a1565b5b0492506004810190505b6064831061238e5760648381612384576123836139a1565b5b0492506002810190505b600a831061239d576001810190505b80915050919050565b6040518060a00160405280600081526020016000815260200160008152602001600081526020016000151581525090565b6000604051905090565b600080fd5b600080fd5b60007fffffffff0000000000000000000000000000000000000000000000000000000082169050919050565b612420816123eb565b811461242b57600080fd5b50565b60008135905061243d81612417565b92915050565b600060208284031215612459576124586123e1565b5b60006124678482850161242e565b91505092915050565b60008115159050919050565b61248581612470565b82525050565b60006020820190506124a0600083018461247c565b92915050565b600081519050919050565b600082825260208201905092915050565b60005b838110156124e05780820151818401526020810190506124c5565b60008484015250505050565b6000601f19601f8301169050919050565b6000612508826124a6565b61251281856124b1565b93506125228185602086016124c2565b61252b816124ec565b840191505092915050565b6000602082019050818103600083015261255081846124fd565b905092915050565b6000819050919050565b61256b81612558565b811461257657600080fd5b50565b60008135905061258881612562565b92915050565b6000602082840312156125a4576125a36123e1565b5b60006125b284828501612579565b91505092915050565b600073ffffffffffffffffffffffffffffffffffffffff82169050919050565b60006125e6826125bb565b9050919050565b6125f6816125db565b82525050565b600060208201905061261160008301846125ed565b92915050565b612620816125db565b811461262b57600080fd5b50565b60008135905061263d81612617565b92915050565b6000806040838503121561265a576126596123e1565b5b60006126688582860161262e565b925050602061267985828601612579565b9150509250929050565b61268c81612558565b82525050565b600060a0820190506126a76000830188612683565b6126b46020830187612683565b6126c16040830186612683565b6126ce6060830185612683565b6126db608083018461247c565b9695505050505050565b6000819050919050565b600061270a612705612700846125bb565b6126e5565b6125bb565b9050919050565b600061271c826126ef565b9050919050565b600061272e82612711565b9050919050565b61273e81612723565b82525050565b60006020820190506127596000830184612735565b92915050565b600080600060608486031215612778576127776123e1565b5b60006127868682870161262e565b93505060206127978682870161262e565b92505060406127a886828701612579565b9150509250925092565b6000819050919050565b6127c5816127b2565b81146127d057600080fd5b50565b6000813590506127e2816127bc565b92915050565b600080604083850312156127ff576127fe6123e1565b5b600061280d85828601612579565b925050602061281e858286016127d3565b9150509250929050565b60006020828403121561283e5761283d6123e1565b5b600061284c8482850161262e565b91505092915050565b600060208201905061286a6000830184612683565b92915050565b60008060408385031215612887576128866123e1565b5b600061289585828601612579565b92505060206128a685828601612579565b9150509250929050565b600080fd5b600080fd5b7f4e487b7100000000000000000000000000000000000000000000000000000000600052604160045260246000fd5b6128f2826124ec565b810181811067ffffffffffffffff82111715612911576129106128ba565b5b80604052505050565b60006129246123d7565b905061293082826128e9565b919050565b600067ffffffffffffffff8211156129505761294f6128ba565b5b612959826124ec565b9050602081019050919050565b82818337600083830152505050565b600061298861298384612935565b61291a565b9050828152602081018484840111156129a4576129a36128b5565b5b6129af848285612966565b509392505050565b600082601f8301126129cc576129cb6128b0565b5b81356129dc848260208601612975565b91505092915050565b600067ffffffffffffffff821115612a00576129ff6128ba565b5b602082029050919050565b600080fd5b6000612a23612a1e846129e5565b61291a565b90508060208402830185811115612a3d57612a3c612a0b565b5b835b81811015612a665780612a528882612579565b845260208401935050602081019050612a3f565b5050509392505050565b600082601f830112612a8557612a846128b0565b5b6002612a92848285612a10565b91505092915050565b600067ffffffffffffffff821115612ab657612ab56128ba565b5b602082029050919050565b6000612ad4612acf84612a9b565b61291a565b90508060408402830185811115612aee57612aed612a0b565b5b835b81811015612b175780612b038882612a70565b845260208401935050604081019050612af0565b5050509392505050565b600082601f830112612b3657612b356128b0565b5b6002612b43848285612ac1565b91505092915050565b600067ffffffffffffffff821115612b6757612b666128ba565b5b602082029050919050565b6000612b85612b8084612b4c565b61291a565b90508060208402830185811115612b9f57612b9e612a0b565b5b835b81811015612bc85780612bb48882612579565b845260208401935050602081019050612ba1565b5050509392505050565b600082601f830112612be757612be66128b0565b5b6003612bf4848285612b72565b91505092915050565b6000806000806000806101a08789031215612c1b57612c1a6123e1565b5b6000612c2989828a0161262e565b965050602087013567ffffffffffffffff811115612c4a57612c496123e6565b5b612c5689828a016129b7565b9550506040612c6789828a01612a70565b9450506080612c7889828a01612b21565b935050610100612c8a89828a01612a70565b925050610140612c9c89828a01612bd2565b9150509295509295509295565b612cb281612470565b8114612cbd57600080fd5b50565b600081359050612ccf81612ca9565b92915050565b60008060408385031215612cec57612ceb6123e1565b5b6000612cfa8582860161262e565b9250506020612d0b85828601612cc0565b9150509250929050565b600067ffffffffffffffff821115612d3057612d2f6128ba565b5b612d39826124ec565b9050602081019050919050565b6000612d59612d5484612d15565b61291a565b905082815260208101848484011115612d7557612d746128b5565b5b612d80848285612966565b509392505050565b600082601f830112612d9d57612d9c6128b0565b5b8135612dad848260208601612d46565b91505092915050565b60008060008060808587031215612dd057612dcf6123e1565b5b6000612dde8782880161262e565b9450506020612def8782880161262e565b9350506040612e0087828801612579565b925050606085013567ffffffffffffffff811115612e2157612e206123e6565b5b612e2d87828801612d88565b91505092959194509250565b612e4281612558565b82525050565b612e5181612470565b82525050565b60a082016000820151612e6d6000850182612e39565b506020820151612e806020850182612e39565b506040820151612e936040850182612e39565b506060820151612ea66060850182612e39565b506080820151612eb96080850182612e48565b50505050565b600060a082019050612ed46000830184612e57565b92915050565b60008060408385031215612ef157612ef06123e1565b5b6000612eff8582860161262e565b9250506020612f108582860161262e565b9150509250929050565b7f4e487b7100000000000000000000000000000000000000000000000000000000600052602260045260246000fd5b60006002820490506001821680612f6157607f821691505b602082108103612f7457612f73612f1a565b5b50919050565b6000606082019050612f8f60008301866125ed565b612f9c6020830185612683565b612fa960408301846125ed565b949350505050565b7f546f6b656e20646f6573206e6f74206578697374000000000000000000000000600082015250565b6000612fe76014836124b1565b9150612ff282612fb1565b602082019050919050565b6000602082019050818103600083015261301681612fda565b9050919050565b7f4e487b7100000000000000000000000000000000000000000000000000000000600052601160045260246000fd5b600061305782612558565b915061306283612558565b925082820190508082111561307a5761307961301d565b5b92915050565b600061308b826127b2565b91507f800000000000000000000000000000000000000000000000000000000000000082036130bd576130bc61301d565b5b816000039050919050565b60006130d382612558565b91506130de83612558565b92508282039050818111156130f6576130f561301d565b5b92915050565b7f53636f7265206d757374206265206265747765656e203020616e642031303030600082015250565b60006131326020836124b1565b915061313d826130fc565b602082019050919050565b6000602082019050818103600083015261316181613125565b9050919050565b7f5573657220616c726561647920686173206120746f6b656e0000000000000000600082015250565b600061319e6018836124b1565b91506131a982613168565b602082019050919050565b600060208201905081810360008301526131cd81613191565b9050919050565b600060029050919050565b600081905092915050565b6000819050919050565b60006132008383612e39565b60208301905092915050565b6000602082019050919050565b613222816131d4565b61322c81846131df565b9250613237826131ea565b8060005b8381101561326857815161324f87826131f4565b965061325a8361320c565b92505060018101905061323b565b505050505050565b600060029050919050565b600081905092915050565b6000819050919050565b600081905092915050565b6132a4816131d4565b6132ae8184613290565b92506132b9826131ea565b8060005b838110156132ea5781516132d187826131f4565b96506132dc8361320c565b9250506001810190506132bd565b505050505050565b60006132fe838361329b565b60408301905092915050565b6000602082019050919050565b61332081613270565b61332a818461327b565b925061333582613286565b8060005b8381101561336657815161334d87826132f2565b96506133588361330a565b925050600181019050613339565b505050505050565b600060039050919050565b600081905092915050565b6000819050919050565b6000602082019050919050565b6133a48161336e565b6133ae8184613379565b92506133b982613384565b8060005b838110156133ea5781516133d187826131f4565b96506133dc8361338e565b9250506001810190506133bd565b505050505050565b6000610160820190506134086000830187613219565b6134156040830186613317565b61342260c0830185613219565b61343061010083018461339b565b95945050505050565b60008151905061344881612ca9565b92915050565b600060208284031215613464576134636123e1565b5b600061347284828501613439565b91505092915050565b7f496e76616c6964205a4b2070726f6f6600000000000000000000000000000000600082015250565b60006134b16010836124b1565b91506134bc8261347b565b602082019050919050565b600060208201905081810360008301526134e0816134a4565b9050919050565b60006134f282612558565b91507fffffffffffffffffffffffffffffffffffffffffffffffffffffffffffffffff82036135245761352361301d565b5b600182019050919050565b7f536f756c626f756e6420746f6b656e732063616e6e6f74206265207472616e7360008201527f6665727265640000000000000000000000000000000000000000000000000000602082015250565b600061358b6026836124b1565b91506135968261352f565b604082019050919050565b600060208201905081810360008301526135ba8161357e565b9050919050565b60008190508160005260206000209050919050565b60006020601f8301049050919050565b600082821b905092915050565b6000600883026136237fffffffffffffffffffffffffffffffffffffffffffffffffffffffffffffffff826135e6565b61362d86836135e6565b95508019841693508086168417925050509392505050565b600061366061365b61365684612558565b6126e5565b612558565b9050919050565b6000819050919050565b61367a83613645565b61368e61368682613667565b8484546135f3565b825550505050565b600090565b6136a3613696565b6136ae818484613671565b505050565b5b818110156136d2576136c760008261369b565b6001810190506136b4565b5050565b601f821115613717576136e8816135c1565b6136f1846135d6565b81016020851015613700578190505b61371461370c856135d6565b8301826136b3565b50505b505050565b600082821c905092915050565b600061373a6000198460080261371c565b1980831691505092915050565b60006137538383613729565b9150826002028217905092915050565b61376c826124a6565b67ffffffffffffffff811115613785576137846128ba565b5b61378f8254612f49565b61379a8282856136d6565b600060209050601f8311600181146137cd57600084156137bb578287015190505b6137c58582613747565b86555061382d565b601f1984166137db866135c1565b60005b82811015613803578489015182556001820191506020850194506020810190506137de565b86831015613820578489015161381c601f891682613729565b8355505b6001600288020188555050505b505050505050565b600081519050919050565b600082825260208201905092915050565b600061385c82613835565b6138668185613840565b93506138768185602086016124c2565b61387f816124ec565b840191505092915050565b600060808201905061389f60008301876125ed565b6138ac60208301866125ed565b6138b96040830185612683565b81810360608301526138cb8184613851565b905095945050505050565b6000815190506138e581612417565b92915050565b600060208284031215613901576139006123e1565b5b600061390f848285016138d6565b91505092915050565b600081905092915050565b600061392e826124a6565b6139388185613918565b93506139488185602086016124c2565b80840191505092915050565b60006139608285613923565b915061396c8284613923565b91508190509392505050565b600060408201905061398d60008301856125ed565b61399a6020830184612683565b9392505050565b7f4e487b7100000000000000000000000000000000000000000000000000000000600052601260045260246000fdfea264697066735822122067ac97b615d894c4f6ea024a24f5bbb02da57d25752615a4d01c6163bc1b730d64736f6c634300081c0033",
  "linkReferences": {},
  "deployedLinkReferences": {}
}